{
  "contractName": "StringMaster",
  "abi": [
    {
      "inputs": [
        {
          "internalType": "string",
          "name": "str",
          "type": "string"
        }
      ],
      "name": "length",
      "outputs": [
        {
          "internalType": "uint256",
          "name": "",
          "type": "uint256"
        }
      ],
      "stateMutability": "pure",
      "type": "function",
      "constant": true
    },
    {
      "inputs": [
        {
          "internalType": "string",
          "name": "string1",
          "type": "string"
        },
        {
          "internalType": "string",
          "name": "string2",
          "type": "string"
        }
      ],
      "name": "concatenate",
      "outputs": [
        {
          "internalType": "string",
          "name": "",
          "type": "string"
        }
      ],
      "stateMutability": "pure",
      "type": "function",
      "constant": true
    }
  ],
  "bytecode": "0x608060405234801561001057600080fd5b50610671806100206000396000f3fe608060405234801561001057600080fd5b50600436106100365760003560e01c8063266001d31461003b578063436a66e71461006b575b600080fd5b6100556004803603810190610050919061039f565b61009b565b604051610062919061049f565b60405180910390f35b610085600480360381019061008091906104c1565b610235565b6040516100929190610523565b60405180910390f35b6060600083905060008390506000815183516100b7919061056d565b67ffffffffffffffff8111156100d0576100cf610274565b5b6040519080825280601f01601f1916602001820160405280156101025781602001600182028036833780820191505090505b50905060008190506000805b85518110156101985785818151811061012a576101296105c3565b5b602001015160f81c60f81b838381518110610148576101476105c3565b5b60200101907effffffffffffffffffffffffffffffffffffffffffffffffffffffffffffff1916908160001a9053508180610182906105f2565b9250508080610190906105f2565b91505061010e565b5060005b8451811015610226578481815181106101b8576101b76105c3565b5b602001015160f81c60f81b8383815181106101d6576101d56105c3565b5b60200101907effffffffffffffffffffffffffffffffffffffffffffffffffffffffffffff1916908160001a9053508180610210906105f2565b925050808061021e906105f2565b91505061019c565b50819550505050505092915050565b6000808290508051915050919050565b6000604051905090565b600080fd5b600080fd5b600080fd5b600080fd5b6000601f19601f8301169050919050565b7f4e487b7100000000000000000000000000000000000000000000000000000000600052604160045260246000fd5b6102ac82610263565b810181811067ffffffffffffffff821117156102cb576102ca610274565b5b80604052505050565b60006102de610245565b90506102ea82826102a3565b919050565b600067ffffffffffffffff82111561030a57610309610274565b5b61031382610263565b9050602081019050919050565b82818337600083830152505050565b600061034261033d846102ef565b6102d4565b90508281526020810184848401111561035e5761035d61025e565b5b610369848285610320565b509392505050565b600082601f83011261038657610385610259565b5b813561039684826020860161032f565b91505092915050565b600080604083850312156103b6576103b561024f565b5b600083013567ffffffffffffffff8111156103d4576103d3610254565b5b6103e085828601610371565b925050602083013567ffffffffffffffff81111561040157610400610254565b5b61040d85828601610371565b9150509250929050565b600081519050919050565b600082825260208201905092915050565b60005b83811015610451578082015181840152602081019050610436565b83811115610460576000848401525b50505050565b600061047182610417565b61047b8185610422565b935061048b818560208601610433565b61049481610263565b840191505092915050565b600060208201905081810360008301526104b98184610466565b905092915050565b6000602082840312156104d7576104d661024f565b5b600082013567ffffffffffffffff8111156104f5576104f4610254565b5b61050184828501610371565b91505092915050565b6000819050919050565b61051d8161050a565b82525050565b60006020820190506105386000830184610514565b92915050565b7f4e487b7100000000000000000000000000000000000000000000000000000000600052601160045260246000fd5b60006105788261050a565b91506105838361050a565b9250827fffffffffffffffffffffffffffffffffffffffffffffffffffffffffffffffff038211156105b8576105b761053e565b5b828201905092915050565b7f4e487b7100000000000000000000000000000000000000000000000000000000600052603260045260246000fd5b60006105fd8261050a565b91507fffffffffffffffffffffffffffffffffffffffffffffffffffffffffffffffff8214156106305761062f61053e565b5b60018201905091905056fea26469706673582212203e54915f59c87dc6e3e4060d141d20b76e9127056038d28dced2a3e3973a0a4264736f6c634300080b0033",
  "immutableReferences": {},
  "source": "// SPDX-License-Identifier: MIT\npragma solidity >=0.4.22 <0.9.0;\n\ncontract StringMaster {\n  function length(string memory str) pure public returns(uint) {\n    bytes memory strBytes = bytes(str);\n    return strBytes.length;\n  }\n\n  function concatenate(string memory string1, string memory string2) pure public returns(string memory) {\n    bytes memory str1Bytes = bytes(string1);\n    bytes memory str2Bytes = bytes(string2);\n    string memory str = new string(str1Bytes.length + str2Bytes.length);\n    bytes memory strBytes = bytes(str);\n\n    uint j = 0;\n    for(uint i = 0; i < str1Bytes.length; i++) {\n      strBytes[j] = str1Bytes[i];\n      j++;\n    }\n    for(uint i = 0; i < str2Bytes.length; i++) {\n      strBytes[j] = str2Bytes[i];\n      j++;\n    }\n\n    return string(strBytes);\n  }\n}\n",
  "sourcePath": "/var/www/html/dapp30/string-manipulation/contracts/StringMaster.sol",
  "compiler": {
    "name": "solc",
    "version": "0.8.11+commit.d7f03943.Emscripten.clang"
  },
  "schemaVersion": "3.4.4",
  "updatedAt": "2022-05-21T01:42:34.961Z",
  "networkType": "ethereum",
  "devdoc": {
    "kind": "dev",
    "methods": {},
    "version": 1
  },
  "userdoc": {
    "kind": "user",
    "methods": {},
    "version": 1
  }
}